{
  "_format": "hh-sol-artifact-1",
  "contractName": "NFTMarketplace",
  "sourceName": "contracts/NFTMarketplace.sol",
  "abi": [
    {
      "inputs": [],
      "stateMutability": "nonpayable",
      "type": "constructor"
    },
    {
      "inputs": [
        {
          "internalType": "address",
          "name": "sender",
          "type": "address"
        },
        {
          "internalType": "uint256",
          "name": "tokenId",
          "type": "uint256"
        },
        {
          "internalType": "address",
          "name": "owner",
          "type": "address"
        }
      ],
      "name": "ERC721IncorrectOwner",
      "type": "error"
    },
    {
      "inputs": [
        {
          "internalType": "address",
          "name": "operator",
          "type": "address"
        },
        {
          "internalType": "uint256",
          "name": "tokenId",
          "type": "uint256"
        }
      ],
      "name": "ERC721InsufficientApproval",
      "type": "error"
    },
    {
      "inputs": [
        {
          "internalType": "address",
          "name": "approver",
          "type": "address"
        }
      ],
      "name": "ERC721InvalidApprover",
      "type": "error"
    },
    {
      "inputs": [
        {
          "internalType": "address",
          "name": "operator",
          "type": "address"
        }
      ],
      "name": "ERC721InvalidOperator",
      "type": "error"
    },
    {
      "inputs": [
        {
          "internalType": "address",
          "name": "owner",
          "type": "address"
        }
      ],
      "name": "ERC721InvalidOwner",
      "type": "error"
    },
    {
      "inputs": [
        {
          "internalType": "address",
          "name": "receiver",
          "type": "address"
        }
      ],
      "name": "ERC721InvalidReceiver",
      "type": "error"
    },
    {
      "inputs": [
        {
          "internalType": "address",
          "name": "sender",
          "type": "address"
        }
      ],
      "name": "ERC721InvalidSender",
      "type": "error"
    },
    {
      "inputs": [
        {
          "internalType": "uint256",
          "name": "tokenId",
          "type": "uint256"
        }
      ],
      "name": "ERC721NonexistentToken",
      "type": "error"
    },
    {
      "anonymous": false,
      "inputs": [
        {
          "indexed": true,
          "internalType": "address",
          "name": "owner",
          "type": "address"
        },
        {
          "indexed": true,
          "internalType": "address",
          "name": "approved",
          "type": "address"
        },
        {
          "indexed": true,
          "internalType": "uint256",
          "name": "tokenId",
          "type": "uint256"
        }
      ],
      "name": "Approval",
      "type": "event"
    },
    {
      "anonymous": false,
      "inputs": [
        {
          "indexed": true,
          "internalType": "address",
          "name": "owner",
          "type": "address"
        },
        {
          "indexed": true,
          "internalType": "address",
          "name": "operator",
          "type": "address"
        },
        {
          "indexed": false,
          "internalType": "bool",
          "name": "approved",
          "type": "bool"
        }
      ],
      "name": "ApprovalForAll",
      "type": "event"
    },
    {
      "anonymous": false,
      "inputs": [
        {
          "indexed": true,
          "internalType": "address",
          "name": "from",
          "type": "address"
        },
        {
          "indexed": true,
          "internalType": "address",
          "name": "to",
          "type": "address"
        },
        {
          "indexed": true,
          "internalType": "uint256",
          "name": "tokenId",
          "type": "uint256"
        }
      ],
      "name": "Transfer",
      "type": "event"
    },
    {
      "inputs": [
        {
          "internalType": "address",
          "name": "to",
          "type": "address"
        },
        {
          "internalType": "uint256",
          "name": "tokenId",
          "type": "uint256"
        }
      ],
      "name": "approve",
      "outputs": [],
      "stateMutability": "nonpayable",
      "type": "function"
    },
    {
      "inputs": [
        {
          "internalType": "address",
          "name": "owner",
          "type": "address"
        }
      ],
      "name": "balanceOf",
      "outputs": [
        {
          "internalType": "uint256",
          "name": "",
          "type": "uint256"
        }
      ],
      "stateMutability": "view",
      "type": "function"
    },
    {
      "inputs": [
        {
          "internalType": "uint256",
          "name": "_tokenId",
          "type": "uint256"
        }
      ],
      "name": "buyNFT",
      "outputs": [],
      "stateMutability": "payable",
      "type": "function"
    },
    {
      "inputs": [
        {
          "internalType": "uint256",
          "name": "tokenId",
          "type": "uint256"
        }
      ],
      "name": "getApproved",
      "outputs": [
        {
          "internalType": "address",
          "name": "",
          "type": "address"
        }
      ],
      "stateMutability": "view",
      "type": "function"
    },
    {
      "inputs": [
        {
          "internalType": "uint256",
          "name": "_tokenId",
          "type": "uint256"
        }
      ],
      "name": "getNFTAddress",
      "outputs": [
        {
          "internalType": "address",
          "name": "",
          "type": "address"
        }
      ],
      "stateMutability": "view",
      "type": "function"
    },
    {
      "inputs": [
        {
          "internalType": "uint256",
          "name": "_tokenId",
          "type": "uint256"
        }
      ],
      "name": "getTokenURL",
      "outputs": [
        {
          "internalType": "string",
          "name": "",
          "type": "string"
        }
      ],
      "stateMutability": "view",
      "type": "function"
    },
    {
      "inputs": [
        {
          "internalType": "address",
          "name": "owner",
          "type": "address"
        },
        {
          "internalType": "address",
          "name": "operator",
          "type": "address"
        }
      ],
      "name": "isApprovedForAll",
      "outputs": [
        {
          "internalType": "bool",
          "name": "",
          "type": "bool"
        }
      ],
      "stateMutability": "view",
      "type": "function"
    },
    {
      "inputs": [
        {
          "internalType": "address",
          "name": "_owner",
          "type": "address"
        },
        {
          "internalType": "uint256",
          "name": "_price",
          "type": "uint256"
        },
        {
          "internalType": "string",
          "name": "_tokenURL",
          "type": "string"
        }
      ],
      "name": "mintNFT",
      "outputs": [
        {
          "internalType": "uint256",
          "name": "",
          "type": "uint256"
        }
      ],
      "stateMutability": "nonpayable",
      "type": "function"
    },
    {
      "inputs": [],
      "name": "name",
      "outputs": [
        {
          "internalType": "string",
          "name": "",
          "type": "string"
        }
      ],
      "stateMutability": "view",
      "type": "function"
    },
    {
      "inputs": [
        {
          "internalType": "uint256",
          "name": "",
          "type": "uint256"
        }
      ],
      "name": "nfts",
      "outputs": [
        {
          "internalType": "address",
          "name": "owner",
          "type": "address"
        },
        {
          "internalType": "uint256",
          "name": "price",
          "type": "uint256"
        },
        {
          "internalType": "bool",
          "name": "isForSale",
          "type": "bool"
        },
        {
          "internalType": "string",
          "name": "tokenURL",
          "type": "string"
        }
      ],
      "stateMutability": "view",
      "type": "function"
    },
    {
      "inputs": [],
      "name": "owner",
      "outputs": [
        {
          "internalType": "address",
          "name": "",
          "type": "address"
        }
      ],
      "stateMutability": "view",
      "type": "function"
    },
    {
      "inputs": [
        {
          "internalType": "uint256",
          "name": "tokenId",
          "type": "uint256"
        }
      ],
      "name": "ownerOf",
      "outputs": [
        {
          "internalType": "address",
          "name": "",
          "type": "address"
        }
      ],
      "stateMutability": "view",
      "type": "function"
    },
    {
      "inputs": [
        {
          "internalType": "address",
          "name": "from",
          "type": "address"
        },
        {
          "internalType": "address",
          "name": "to",
          "type": "address"
        },
        {
          "internalType": "uint256",
          "name": "tokenId",
          "type": "uint256"
        }
      ],
      "name": "safeTransferFrom",
      "outputs": [],
      "stateMutability": "nonpayable",
      "type": "function"
    },
    {
      "inputs": [
        {
          "internalType": "address",
          "name": "from",
          "type": "address"
        },
        {
          "internalType": "address",
          "name": "to",
          "type": "address"
        },
        {
          "internalType": "uint256",
          "name": "tokenId",
          "type": "uint256"
        },
        {
          "internalType": "bytes",
          "name": "data",
          "type": "bytes"
        }
      ],
      "name": "safeTransferFrom",
      "outputs": [],
      "stateMutability": "nonpayable",
      "type": "function"
    },
    {
      "inputs": [
        {
          "internalType": "uint256",
          "name": "_tokenId",
          "type": "uint256"
        },
        {
          "internalType": "uint256",
          "name": "_price",
          "type": "uint256"
        }
      ],
      "name": "sellNFT",
      "outputs": [],
      "stateMutability": "nonpayable",
      "type": "function"
    },
    {
      "inputs": [
        {
          "internalType": "address",
          "name": "operator",
          "type": "address"
        },
        {
          "internalType": "bool",
          "name": "approved",
          "type": "bool"
        }
      ],
      "name": "setApprovalForAll",
      "outputs": [],
      "stateMutability": "nonpayable",
      "type": "function"
    },
    {
      "inputs": [
        {
          "internalType": "bytes4",
          "name": "interfaceId",
          "type": "bytes4"
        }
      ],
      "name": "supportsInterface",
      "outputs": [
        {
          "internalType": "bool",
          "name": "",
          "type": "bool"
        }
      ],
      "stateMutability": "view",
      "type": "function"
    },
    {
      "inputs": [],
      "name": "symbol",
      "outputs": [
        {
          "internalType": "string",
          "name": "",
          "type": "string"
        }
      ],
      "stateMutability": "view",
      "type": "function"
    },
    {
      "inputs": [],
      "name": "tokenId",
      "outputs": [
        {
          "internalType": "uint256",
          "name": "",
          "type": "uint256"
        }
      ],
      "stateMutability": "view",
      "type": "function"
    },
    {
      "inputs": [
        {
          "internalType": "uint256",
          "name": "tokenId",
          "type": "uint256"
        }
      ],
      "name": "tokenURI",
      "outputs": [
        {
          "internalType": "string",
          "name": "",
          "type": "string"
        }
      ],
      "stateMutability": "view",
      "type": "function"
    },
    {
      "inputs": [
        {
          "internalType": "address",
          "name": "from",
          "type": "address"
        },
        {
          "internalType": "address",
          "name": "to",
          "type": "address"
        },
        {
          "internalType": "uint256",
          "name": "tokenId",
          "type": "uint256"
        }
      ],
      "name": "transferFrom",
      "outputs": [],
      "stateMutability": "nonpayable",
      "type": "function"
    }
  ],
  "bytecode": "0x608060405260016007553480156200001657600080fd5b506040518060400160405280600f81526020017f4e4654204d61726b6574706c61636500000000000000000000000000000000008152506040518060400160405280600481526020017f4e46544d0000000000000000000000000000000000000000000000000000000081525081600090816200009491906200036a565b508060019081620000a691906200036a565b50505033600660006101000a81548173ffffffffffffffffffffffffffffffffffffffff021916908373ffffffffffffffffffffffffffffffffffffffff16021790555062000451565b600081519050919050565b7f4e487b7100000000000000000000000000000000000000000000000000000000600052604160045260246000fd5b7f4e487b7100000000000000000000000000000000000000000000000000000000600052602260045260246000fd5b600060028204905060018216806200017257607f821691505b6020821081036200018857620001876200012a565b5b50919050565b60008190508160005260206000209050919050565b60006020601f8301049050919050565b600082821b905092915050565b600060088302620001f27fffffffffffffffffffffffffffffffffffffffffffffffffffffffffffffffff82620001b3565b620001fe8683620001b3565b95508019841693508086168417925050509392505050565b6000819050919050565b6000819050919050565b60006200024b620002456200023f8462000216565b62000220565b62000216565b9050919050565b6000819050919050565b62000267836200022a565b6200027f620002768262000252565b848454620001c0565b825550505050565b600090565b6200029662000287565b620002a38184846200025c565b505050565b5b81811015620002cb57620002bf6000826200028c565b600181019050620002a9565b5050565b601f8211156200031a57620002e4816200018e565b620002ef84620001a3565b81016020851015620002ff578190505b620003176200030e85620001a3565b830182620002a8565b50505b505050565b600082821c905092915050565b60006200033f600019846008026200031f565b1980831691505092915050565b60006200035a83836200032c565b9150826002028217905092915050565b6200037582620000f0565b67ffffffffffffffff811115620003915762000390620000fb565b5b6200039d825462000159565b620003aa828285620002cf565b600060209050601f831160018114620003e25760008415620003cd578287015190505b620003d985826200034c565b86555062000449565b601f198416620003f2866200018e565b60005b828110156200041c57848901518255600182019150602085019450602081019050620003f5565b868310156200043c578489015162000438601f8916826200032c565b8355505b6001600288020188555050505b505050505050565b612eb880620004616000396000f3fe60806040526004361061012a5760003560e01c80636352211e116100ab57806395d89b411161006f57806395d89b411461041e5780639d18f77314610449578063a22cb46514610486578063b88d4fde146104af578063c87b56dd146104d8578063e985e9c5146105155761012a565b80636352211e1461031357806370a08231146103505780638665e2ad1461038d5780638da5cb5b146103ca57806391a48a1e146103f55761012a565b80631e576912116100f25780631e5769121461022857806323b872dd14610265578063265aa6211461028e57806342842e0e146102ce57806351ed8288146102f75761012a565b806301ffc9a71461012f57806306fdde031461016c578063081812fc14610197578063095ea7b3146101d457806317d70f7c146101fd575b600080fd5b34801561013b57600080fd5b5061015660048036038101906101519190612091565b610552565b60405161016391906120d9565b60405180910390f35b34801561017857600080fd5b50610181610634565b60405161018e9190612184565b60405180910390f35b3480156101a357600080fd5b506101be60048036038101906101b991906121dc565b6106c6565b6040516101cb919061224a565b60405180910390f35b3480156101e057600080fd5b506101fb60048036038101906101f69190612291565b6106e2565b005b34801561020957600080fd5b506102126106f8565b60405161021f91906122e0565b60405180910390f35b34801561023457600080fd5b5061024f600480360381019061024a9190612360565b6106fe565b60405161025c91906122e0565b60405180910390f35b34801561027157600080fd5b5061028c600480360381019061028791906123d4565b6108dc565b005b34801561029a57600080fd5b506102b560048036038101906102b091906121dc565b6109de565b6040516102c59493929190612427565b60405180910390f35b3480156102da57600080fd5b506102f560048036038101906102f091906123d4565b610ac3565b005b610311600480360381019061030c91906121dc565b610ae3565b005b34801561031f57600080fd5b5061033a600480360381019061033591906121dc565b610c3b565b604051610347919061224a565b60405180910390f35b34801561035c57600080fd5b5061037760048036038101906103729190612473565b610c4d565b60405161038491906122e0565b60405180910390f35b34801561039957600080fd5b506103b460048036038101906103af91906121dc565b610d07565b6040516103c19190612184565b60405180910390f35b3480156103d657600080fd5b506103df610daf565b6040516103ec919061224a565b60405180910390f35b34801561040157600080fd5b5061041c600480360381019061041791906124a0565b610dd5565b005b34801561042a57600080fd5b50610433610f31565b6040516104409190612184565b60405180910390f35b34801561045557600080fd5b50610470600480360381019061046b91906121dc565b610fc3565b60405161047d919061224a565b60405180910390f35b34801561049257600080fd5b506104ad60048036038101906104a8919061250c565b611003565b005b3480156104bb57600080fd5b506104d660048036038101906104d1919061267c565b611019565b005b3480156104e457600080fd5b506104ff60048036038101906104fa91906121dc565b61103e565b60405161050c9190612184565b60405180910390f35b34801561052157600080fd5b5061053c600480360381019061053791906126ff565b6110a7565b60405161054991906120d9565b60405180910390f35b60007f80ac58cd000000000000000000000000000000000000000000000000000000007bffffffffffffffffffffffffffffffffffffffffffffffffffffffff1916827bffffffffffffffffffffffffffffffffffffffffffffffffffffffff1916148061061d57507f5b5e139f000000000000000000000000000000000000000000000000000000007bffffffffffffffffffffffffffffffffffffffffffffffffffffffff1916827bffffffffffffffffffffffffffffffffffffffffffffffffffffffff1916145b8061062d575061062c8261113b565b5b9050919050565b6060600080546106439061276e565b80601f016020809104026020016040519081016040528092919081815260200182805461066f9061276e565b80156106bc5780601f10610691576101008083540402835291602001916106bc565b820191906000526020600020905b81548152906001019060200180831161069f57829003601f168201915b5050505050905090565b60006106d1826111a5565b506106db8261122d565b9050919050565b6106f482826106ef61126a565b611272565b5050565b60075481565b6000600660009054906101000a900473ffffffffffffffffffffffffffffffffffffffff1673ffffffffffffffffffffffffffffffffffffffff163373ffffffffffffffffffffffffffffffffffffffff1614610790576040517f08c379a0000000000000000000000000000000000000000000000000000000008152600401610787906127eb565b60405180910390fd5b6000600760008154809291906107a59061283a565b9190505590506107b58682611284565b60405180608001604052808773ffffffffffffffffffffffffffffffffffffffff16815260200186815260200160001515815260200185858080601f016020809104026020016040519081016040528093929190818152602001838380828437600081840152601f19601f820116905080830192505050505050508152506008600083815260200190815260200160002060008201518160000160006101000a81548173ffffffffffffffffffffffffffffffffffffffff021916908373ffffffffffffffffffffffffffffffffffffffff1602179055506020820151816001015560408201518160020160006101000a81548160ff02191690831515021790555060608201518160030190816108cc9190612a2e565b5090505080915050949350505050565b600073ffffffffffffffffffffffffffffffffffffffff168273ffffffffffffffffffffffffffffffffffffffff160361094e5760006040517f64a0ae92000000000000000000000000000000000000000000000000000000008152600401610945919061224a565b60405180910390fd5b6000610962838361095d61126a565b6112a2565b90508373ffffffffffffffffffffffffffffffffffffffff168173ffffffffffffffffffffffffffffffffffffffff16146109d8578382826040517f64283d7b0000000000000000000000000000000000000000000000000000000081526004016109cf93929190612b00565b60405180910390fd5b50505050565b60086020528060005260406000206000915090508060000160009054906101000a900473ffffffffffffffffffffffffffffffffffffffff16908060010154908060020160009054906101000a900460ff1690806003018054610a409061276e565b80601f0160208091040260200160405190810160405280929190818152602001828054610a6c9061276e565b8015610ab95780601f10610a8e57610100808354040283529160200191610ab9565b820191906000526020600020905b815481529060010190602001808311610a9c57829003601f168201915b5050505050905084565b610ade83838360405180602001604052806000815250611019565b505050565b600115156008600083815260200190815260200160002060020160009054906101000a900460ff16151514610b4d576040517f08c379a0000000000000000000000000000000000000000000000000000000008152600401610b4490612b83565b60405180910390fd5b6008600082815260200190815260200160002060010154341015610ba6576040517f08c379a0000000000000000000000000000000000000000000000000000000008152600401610b9d90612bef565b60405180910390fd5b60006008600083815260200190815260200160002060000160009054906101000a900473ffffffffffffffffffffffffffffffffffffffff16905060006008600084815260200190815260200160002060020160006101000a81548160ff02191690831515021790555060006008600084815260200190815260200160002060010181905550610c378133846114bc565b5050565b6000610c46826111a5565b9050919050565b60008073ffffffffffffffffffffffffffffffffffffffff168273ffffffffffffffffffffffffffffffffffffffff1603610cc05760006040517f89c62b64000000000000000000000000000000000000000000000000000000008152600401610cb7919061224a565b60405180910390fd5b600360008373ffffffffffffffffffffffffffffffffffffffff1673ffffffffffffffffffffffffffffffffffffffff168152602001908152602001600020549050919050565b6060600860008381526020019081526020016000206003018054610d2a9061276e565b80601f0160208091040260200160405190810160405280929190818152602001828054610d569061276e565b8015610da35780601f10610d7857610100808354040283529160200191610da3565b820191906000526020600020905b815481529060010190602001808311610d8657829003601f168201915b50505050509050919050565b600660009054906101000a900473ffffffffffffffffffffffffffffffffffffffff1681565b6008600083815260200190815260200160002060000160009054906101000a900473ffffffffffffffffffffffffffffffffffffffff1673ffffffffffffffffffffffffffffffffffffffff163373ffffffffffffffffffffffffffffffffffffffff1614610e79576040517f08c379a0000000000000000000000000000000000000000000000000000000008152600401610e7090612c5b565b60405180910390fd5b600015156008600084815260200190815260200160002060020160009054906101000a900460ff16151514610ee3576040517f08c379a0000000000000000000000000000000000000000000000000000000008152600401610eda90612cc7565b60405180910390fd5b80600860008481526020019081526020016000206001018190555060016008600084815260200190815260200160002060020160006101000a81548160ff0219169083151502179055505050565b606060018054610f409061276e565b80601f0160208091040260200160405190810160405280929190818152602001828054610f6c9061276e565b8015610fb95780601f10610f8e57610100808354040283529160200191610fb9565b820191906000526020600020905b815481529060010190602001808311610f9c57829003601f168201915b5050505050905090565b60006008600083815260200190815260200160002060000160009054906101000a900473ffffffffffffffffffffffffffffffffffffffff169050919050565b61101561100e61126a565b8383611629565b5050565b6110248484846108dc565b61103861102f61126a565b85858585611798565b50505050565b6060611049826111a5565b506000611054611949565b90506000815111611074576040518060200160405280600081525061109f565b8061107e84611960565b60405160200161108f929190612d23565b6040516020818303038152906040525b915050919050565b6000600560008473ffffffffffffffffffffffffffffffffffffffff1673ffffffffffffffffffffffffffffffffffffffff16815260200190815260200160002060008373ffffffffffffffffffffffffffffffffffffffff1673ffffffffffffffffffffffffffffffffffffffff16815260200190815260200160002060009054906101000a900460ff16905092915050565b60007f01ffc9a7000000000000000000000000000000000000000000000000000000007bffffffffffffffffffffffffffffffffffffffffffffffffffffffff1916827bffffffffffffffffffffffffffffffffffffffffffffffffffffffff1916149050919050565b6000806111b183611a2e565b9050600073ffffffffffffffffffffffffffffffffffffffff168173ffffffffffffffffffffffffffffffffffffffff160361122457826040517f7e27328900000000000000000000000000000000000000000000000000000000815260040161121b91906122e0565b60405180910390fd5b80915050919050565b60006004600083815260200190815260200160002060009054906101000a900473ffffffffffffffffffffffffffffffffffffffff169050919050565b600033905090565b61127f8383836001611a6b565b505050565b61129e828260405180602001604052806000815250611c30565b5050565b6000806112ae84611a2e565b9050600073ffffffffffffffffffffffffffffffffffffffff168373ffffffffffffffffffffffffffffffffffffffff16146112f0576112ef818486611c54565b5b600073ffffffffffffffffffffffffffffffffffffffff168173ffffffffffffffffffffffffffffffffffffffff161461138157611332600085600080611a6b565b6001600360008373ffffffffffffffffffffffffffffffffffffffff1673ffffffffffffffffffffffffffffffffffffffff168152602001908152602001600020600082825403925050819055505b600073ffffffffffffffffffffffffffffffffffffffff168573ffffffffffffffffffffffffffffffffffffffff1614611404576001600360008773ffffffffffffffffffffffffffffffffffffffff1673ffffffffffffffffffffffffffffffffffffffff168152602001908152602001600020600082825401925050819055505b846002600086815260200190815260200160002060006101000a81548173ffffffffffffffffffffffffffffffffffffffff021916908373ffffffffffffffffffffffffffffffffffffffff160217905550838573ffffffffffffffffffffffffffffffffffffffff168273ffffffffffffffffffffffffffffffffffffffff167fddf252ad1be2c89b69c2b068fc378daa952ba7f163c4a11628f55a4df523b3ef60405160405180910390a4809150509392505050565b600073ffffffffffffffffffffffffffffffffffffffff168273ffffffffffffffffffffffffffffffffffffffff160361152e5760006040517f64a0ae92000000000000000000000000000000000000000000000000000000008152600401611525919061224a565b60405180910390fd5b600061153c838360006112a2565b9050600073ffffffffffffffffffffffffffffffffffffffff168173ffffffffffffffffffffffffffffffffffffffff16036115af57816040517f7e2732890000000000000000000000000000000000000000000000000000000081526004016115a691906122e0565b60405180910390fd5b8373ffffffffffffffffffffffffffffffffffffffff168173ffffffffffffffffffffffffffffffffffffffff1614611623578382826040517f64283d7b00000000000000000000000000000000000000000000000000000000815260040161161a93929190612b00565b60405180910390fd5b50505050565b600073ffffffffffffffffffffffffffffffffffffffff168273ffffffffffffffffffffffffffffffffffffffff160361169a57816040517f5b08ba18000000000000000000000000000000000000000000000000000000008152600401611691919061224a565b60405180910390fd5b80600560008573ffffffffffffffffffffffffffffffffffffffff1673ffffffffffffffffffffffffffffffffffffffff16815260200190815260200160002060008473ffffffffffffffffffffffffffffffffffffffff1673ffffffffffffffffffffffffffffffffffffffff16815260200190815260200160002060006101000a81548160ff0219169083151502179055508173ffffffffffffffffffffffffffffffffffffffff168373ffffffffffffffffffffffffffffffffffffffff167f17307eab39ab6107e8899845ad3d59bd9653f200f220920489ca2b5937696c318360405161178b91906120d9565b60405180910390a3505050565b60008373ffffffffffffffffffffffffffffffffffffffff163b1115611942578273ffffffffffffffffffffffffffffffffffffffff1663150b7a02868685856040518563ffffffff1660e01b81526004016117f79493929190612d9c565b6020604051808303816000875af192505050801561183357506040513d601f19601f820116820180604052508101906118309190612dfd565b60015b6118b7573d8060008114611863576040519150601f19603f3d011682016040523d82523d6000602084013e611868565b606091505b5060008151036118af57836040517f64a0ae920000000000000000000000000000000000000000000000000000000081526004016118a6919061224a565b60405180910390fd5b805181602001fd5b63150b7a0260e01b7bffffffffffffffffffffffffffffffffffffffffffffffffffffffff1916817bffffffffffffffffffffffffffffffffffffffffffffffffffffffff19161461194057836040517f64a0ae92000000000000000000000000000000000000000000000000000000008152600401611937919061224a565b60405180910390fd5b505b5050505050565b606060405180602001604052806000815250905090565b60606000600161196f84611d18565b01905060008167ffffffffffffffff81111561198e5761198d612551565b5b6040519080825280601f01601f1916602001820160405280156119c05781602001600182028036833780820191505090505b509050600082602001820190505b600115611a23578080600190039150507f3031323334353637383961626364656600000000000000000000000000000000600a86061a8153600a8581611a1757611a16612e2a565b5b049450600085036119ce575b819350505050919050565b60006002600083815260200190815260200160002060009054906101000a900473ffffffffffffffffffffffffffffffffffffffff169050919050565b8080611aa45750600073ffffffffffffffffffffffffffffffffffffffff168273ffffffffffffffffffffffffffffffffffffffff1614155b15611bd8576000611ab4846111a5565b9050600073ffffffffffffffffffffffffffffffffffffffff168373ffffffffffffffffffffffffffffffffffffffff1614158015611b1f57508273ffffffffffffffffffffffffffffffffffffffff168173ffffffffffffffffffffffffffffffffffffffff1614155b8015611b325750611b3081846110a7565b155b15611b7457826040517fa9fbf51f000000000000000000000000000000000000000000000000000000008152600401611b6b919061224a565b60405180910390fd5b8115611bd657838573ffffffffffffffffffffffffffffffffffffffff168273ffffffffffffffffffffffffffffffffffffffff167f8c5be1e5ebec7d5bd14f71427d1e84f3dd0314c0f7b2291e5b200ac8c7c3b92560405160405180910390a45b505b836004600085815260200190815260200160002060006101000a81548173ffffffffffffffffffffffffffffffffffffffff021916908373ffffffffffffffffffffffffffffffffffffffff16021790555050505050565b611c3a8383611e6b565b611c4f611c4561126a565b6000858585611798565b505050565b611c5f838383611f64565b611d1357600073ffffffffffffffffffffffffffffffffffffffff168373ffffffffffffffffffffffffffffffffffffffff1603611cd457806040517f7e273289000000000000000000000000000000000000000000000000000000008152600401611ccb91906122e0565b60405180910390fd5b81816040517f177e802f000000000000000000000000000000000000000000000000000000008152600401611d0a929190612e59565b60405180910390fd5b505050565b600080600090507a184f03e93ff9f4daa797ed6e38ed64bf6a1f0100000000000000008310611d76577a184f03e93ff9f4daa797ed6e38ed64bf6a1f0100000000000000008381611d6c57611d6b612e2a565b5b0492506040810190505b6d04ee2d6d415b85acef81000000008310611db3576d04ee2d6d415b85acef81000000008381611da957611da8612e2a565b5b0492506020810190505b662386f26fc100008310611de257662386f26fc100008381611dd857611dd7612e2a565b5b0492506010810190505b6305f5e1008310611e0b576305f5e1008381611e0157611e00612e2a565b5b0492506008810190505b6127108310611e30576127108381611e2657611e25612e2a565b5b0492506004810190505b60648310611e535760648381611e4957611e48612e2a565b5b0492506002810190505b600a8310611e62576001810190505b80915050919050565b600073ffffffffffffffffffffffffffffffffffffffff168273ffffffffffffffffffffffffffffffffffffffff1603611edd5760006040517f64a0ae92000000000000000000000000000000000000000000000000000000008152600401611ed4919061224a565b60405180910390fd5b6000611eeb838360006112a2565b9050600073ffffffffffffffffffffffffffffffffffffffff168173ffffffffffffffffffffffffffffffffffffffff1614611f5f5760006040517f73c6ac6e000000000000000000000000000000000000000000000000000000008152600401611f56919061224a565b60405180910390fd5b505050565b60008073ffffffffffffffffffffffffffffffffffffffff168373ffffffffffffffffffffffffffffffffffffffff161415801561201c57508273ffffffffffffffffffffffffffffffffffffffff168473ffffffffffffffffffffffffffffffffffffffff161480611fdd5750611fdc84846110a7565b5b8061201b57508273ffffffffffffffffffffffffffffffffffffffff166120038361122d565b73ffffffffffffffffffffffffffffffffffffffff16145b5b90509392505050565b6000604051905090565b600080fd5b600080fd5b60007fffffffff0000000000000000000000000000000000000000000000000000000082169050919050565b61206e81612039565b811461207957600080fd5b50565b60008135905061208b81612065565b92915050565b6000602082840312156120a7576120a661202f565b5b60006120b58482850161207c565b91505092915050565b60008115159050919050565b6120d3816120be565b82525050565b60006020820190506120ee60008301846120ca565b92915050565b600081519050919050565b600082825260208201905092915050565b60005b8381101561212e578082015181840152602081019050612113565b60008484015250505050565b6000601f19601f8301169050919050565b6000612156826120f4565b61216081856120ff565b9350612170818560208601612110565b6121798161213a565b840191505092915050565b6000602082019050818103600083015261219e818461214b565b905092915050565b6000819050919050565b6121b9816121a6565b81146121c457600080fd5b50565b6000813590506121d6816121b0565b92915050565b6000602082840312156121f2576121f161202f565b5b6000612200848285016121c7565b91505092915050565b600073ffffffffffffffffffffffffffffffffffffffff82169050919050565b600061223482612209565b9050919050565b61224481612229565b82525050565b600060208201905061225f600083018461223b565b92915050565b61226e81612229565b811461227957600080fd5b50565b60008135905061228b81612265565b92915050565b600080604083850312156122a8576122a761202f565b5b60006122b68582860161227c565b92505060206122c7858286016121c7565b9150509250929050565b6122da816121a6565b82525050565b60006020820190506122f560008301846122d1565b92915050565b600080fd5b600080fd5b600080fd5b60008083601f8401126123205761231f6122fb565b5b8235905067ffffffffffffffff81111561233d5761233c612300565b5b60208301915083600182028301111561235957612358612305565b5b9250929050565b6000806000806060858703121561237a5761237961202f565b5b60006123888782880161227c565b9450506020612399878288016121c7565b935050604085013567ffffffffffffffff8111156123ba576123b9612034565b5b6123c68782880161230a565b925092505092959194509250565b6000806000606084860312156123ed576123ec61202f565b5b60006123fb8682870161227c565b935050602061240c8682870161227c565b925050604061241d868287016121c7565b9150509250925092565b600060808201905061243c600083018761223b565b61244960208301866122d1565b61245660408301856120ca565b8181036060830152612468818461214b565b905095945050505050565b6000602082840312156124895761248861202f565b5b60006124978482850161227c565b91505092915050565b600080604083850312156124b7576124b661202f565b5b60006124c5858286016121c7565b92505060206124d6858286016121c7565b9150509250929050565b6124e9816120be565b81146124f457600080fd5b50565b600081359050612506816124e0565b92915050565b600080604083850312156125235761252261202f565b5b60006125318582860161227c565b9250506020612542858286016124f7565b9150509250929050565b600080fd5b7f4e487b7100000000000000000000000000000000000000000000000000000000600052604160045260246000fd5b6125898261213a565b810181811067ffffffffffffffff821117156125a8576125a7612551565b5b80604052505050565b60006125bb612025565b90506125c78282612580565b919050565b600067ffffffffffffffff8211156125e7576125e6612551565b5b6125f08261213a565b9050602081019050919050565b82818337600083830152505050565b600061261f61261a846125cc565b6125b1565b90508281526020810184848401111561263b5761263a61254c565b5b6126468482856125fd565b509392505050565b600082601f830112612663576126626122fb565b5b813561267384826020860161260c565b91505092915050565b600080600080608085870312156126965761269561202f565b5b60006126a48782880161227c565b94505060206126b58782880161227c565b93505060406126c6878288016121c7565b925050606085013567ffffffffffffffff8111156126e7576126e6612034565b5b6126f38782880161264e565b91505092959194509250565b600080604083850312156127165761271561202f565b5b60006127248582860161227c565b92505060206127358582860161227c565b9150509250929050565b7f4e487b7100000000000000000000000000000000000000000000000000000000600052602260045260246000fd5b6000600282049050600182168061278657607f821691505b6020821081036127995761279861273f565b5b50919050565b7f4f6e6c79206f776e65722063616e206d696e74204e4654000000000000000000600082015250565b60006127d56017836120ff565b91506127e08261279f565b602082019050919050565b60006020820190508181036000830152612804816127c8565b9050919050565b7f4e487b7100000000000000000000000000000000000000000000000000000000600052601160045260246000fd5b6000612845826121a6565b91507fffffffffffffffffffffffffffffffffffffffffffffffffffffffffffffffff82036128775761287661280b565b5b600182019050919050565b60008190508160005260206000209050919050565b60006020601f8301049050919050565b600082821b905092915050565b6000600883026128e47fffffffffffffffffffffffffffffffffffffffffffffffffffffffffffffffff826128a7565b6128ee86836128a7565b95508019841693508086168417925050509392505050565b6000819050919050565b600061292b612926612921846121a6565b612906565b6121a6565b9050919050565b6000819050919050565b61294583612910565b61295961295182612932565b8484546128b4565b825550505050565b600090565b61296e612961565b61297981848461293c565b505050565b5b8181101561299d57612992600082612966565b60018101905061297f565b5050565b601f8211156129e2576129b381612882565b6129bc84612897565b810160208510156129cb578190505b6129df6129d785612897565b83018261297e565b50505b505050565b600082821c905092915050565b6000612a05600019846008026129e7565b1980831691505092915050565b6000612a1e83836129f4565b9150826002028217905092915050565b612a37826120f4565b67ffffffffffffffff811115612a5057612a4f612551565b5b612a5a825461276e565b612a658282856129a1565b600060209050601f831160018114612a985760008415612a86578287015190505b612a908582612a12565b865550612af8565b601f198416612aa686612882565b60005b82811015612ace57848901518255600182019150602085019450602081019050612aa9565b86831015612aeb5784890151612ae7601f8916826129f4565b8355505b6001600288020188555050505b505050505050565b6000606082019050612b15600083018661223b565b612b2260208301856122d1565b612b2f604083018461223b565b949350505050565b7f4e4654206973206e6f7420666f722073616c6500000000000000000000000000600082015250565b6000612b6d6013836120ff565b9150612b7882612b37565b602082019050919050565b60006020820190508181036000830152612b9c81612b60565b9050919050565b7f4e6f7420656e6f75676820457468657220746f20627579204e46540000000000600082015250565b6000612bd9601b836120ff565b9150612be482612ba3565b602082019050919050565b60006020820190508181036000830152612c0881612bcc565b9050919050565b7f4f6e6c79206f776e65722063616e2073656c6c204e4654000000000000000000600082015250565b6000612c456017836120ff565b9150612c5082612c0f565b602082019050919050565b60006020820190508181036000830152612c7481612c38565b9050919050565b7f4e465420697320616c726561647920666f722073616c65000000000000000000600082015250565b6000612cb16017836120ff565b9150612cbc82612c7b565b602082019050919050565b60006020820190508181036000830152612ce081612ca4565b9050919050565b600081905092915050565b6000612cfd826120f4565b612d078185612ce7565b9350612d17818560208601612110565b80840191505092915050565b6000612d2f8285612cf2565b9150612d3b8284612cf2565b91508190509392505050565b600081519050919050565b600082825260208201905092915050565b6000612d6e82612d47565b612d788185612d52565b9350612d88818560208601612110565b612d918161213a565b840191505092915050565b6000608082019050612db1600083018761223b565b612dbe602083018661223b565b612dcb60408301856122d1565b8181036060830152612ddd8184612d63565b905095945050505050565b600081519050612df781612065565b92915050565b600060208284031215612e1357612e1261202f565b5b6000612e2184828501612de8565b91505092915050565b7f4e487b7100000000000000000000000000000000000000000000000000000000600052601260045260246000fd5b6000604082019050612e6e600083018561223b565b612e7b60208301846122d1565b939250505056fea2646970667358221220d18ac156f83a668ea024295fad8d413174a66046771c16bc21b5ebad2600e8f764736f6c63430008140033",
  "linkReferences": {},
  "deployedLinkReferences": {}
}